{
  "_format": "hh-sol-artifact-1",
  "contractName": "VideoStorage",
  "sourceName": "contracts/Upload.sol",
  "abi": [
    {
      "anonymous": false,
      "inputs": [
        {
          "indexed": true,
          "internalType": "address",
          "name": "user",
          "type": "address"
        },
        {
          "indexed": true,
          "internalType": "string",
          "name": "videoHash",
          "type": "string"
        },
        {
          "indexed": false,
          "internalType": "string",
          "name": "result",
          "type": "string"
        },
        {
          "indexed": false,
          "internalType": "uint256",
          "name": "timestamp",
          "type": "uint256"
        }
      ],
      "name": "VideoUploaded",
      "type": "event"
    },
    {
      "inputs": [
        {
          "internalType": "string",
          "name": "videoHash",
          "type": "string"
        },
        {
          "internalType": "string",
          "name": "result",
          "type": "string"
        }
      ],
      "name": "addVideo",
      "outputs": [],
      "stateMutability": "nonpayable",
      "type": "function"
    },
    {
      "inputs": [
        {
          "internalType": "string",
          "name": "videoHash",
          "type": "string"
        }
      ],
      "name": "checkExistingVid",
      "outputs": [
        {
          "internalType": "bool",
          "name": "",
          "type": "bool"
        }
      ],
      "stateMutability": "view",
      "type": "function"
    },
    {
      "inputs": [
        {
          "internalType": "address",
          "name": "userAddress",
          "type": "address"
        }
      ],
      "name": "getUserVideos",
      "outputs": [
        {
          "components": [
            {
              "internalType": "string",
              "name": "videoHash",
              "type": "string"
            },
            {
              "internalType": "string",
              "name": "result",
              "type": "string"
            },
            {
              "internalType": "uint256",
              "name": "timestamp",
              "type": "uint256"
            }
          ],
          "internalType": "struct VideoStorage.VideoResult[]",
          "name": "",
          "type": "tuple[]"
        }
      ],
      "stateMutability": "view",
      "type": "function"
    },
    {
      "inputs": [
        {
          "internalType": "string",
          "name": "videoHash",
          "type": "string"
        }
      ],
      "name": "getVideoResult",
      "outputs": [
        {
          "components": [
            {
              "internalType": "string",
              "name": "videoHash",
              "type": "string"
            },
            {
              "internalType": "string",
              "name": "result",
              "type": "string"
            },
            {
              "internalType": "uint256",
              "name": "timestamp",
              "type": "uint256"
            }
          ],
          "internalType": "struct VideoStorage.VideoResult",
          "name": "",
          "type": "tuple"
        }
      ],
      "stateMutability": "view",
      "type": "function"
    },
    {
      "inputs": [
        {
          "internalType": "address",
          "name": "",
          "type": "address"
        }
      ],
      "name": "users",
      "outputs": [
        {
          "internalType": "address",
          "name": "userAddress",
          "type": "address"
        }
      ],
      "stateMutability": "view",
      "type": "function"
    },
    {
      "inputs": [
        {
          "internalType": "string",
          "name": "",
          "type": "string"
        }
      ],
      "name": "videoResults",
      "outputs": [
        {
          "internalType": "string",
          "name": "videoHash",
          "type": "string"
        },
        {
          "internalType": "string",
          "name": "result",
          "type": "string"
        },
        {
          "internalType": "uint256",
          "name": "timestamp",
          "type": "uint256"
        }
      ],
      "stateMutability": "view",
      "type": "function"
    }
  ],
  "bytecode": "0x608060405234801561001057600080fd5b5061137c806100206000396000f3fe608060405234801561001057600080fd5b50600436106100625760003560e01c80630dbd9bdc146100675780632894291e1461008357806362f6261a146100b3578063952d2150146100e5578063a87430ba14610115578063cec1c09214610145575b600080fd5b610081600480360381019061007c9190610a51565b610175565b005b61009d60048036038101906100989190610ac9565b61036a565b6040516100aa9190610c01565b60405180910390f35b6100cd60048036038101906100c89190610ac9565b610540565b6040516100dc93929190610c7c565b60405180910390f35b6100ff60048036038101906100fa9190610ac9565b610690565b60405161010c9190610cdc565b60405180910390f35b61012f600480360381019061012a9190610d55565b6106ca565b60405161013c9190610d91565b60405180910390f35b61015f600480360381019061015a9190610d55565b610708565b60405161016c9190610ec5565b60405180910390f35b60006001836040516101879190610f23565b908152602001604051809103902060000180546101a390610f69565b9050146101e5576040517f08c379a00000000000000000000000000000000000000000000000000000000081526004016101dc9061100c565b60405180910390fd5b60006040518060600160405280848152602001838152602001428152509050806001846040516102159190610f23565b9081526020016040518091039020600082015181600001908161023891906111d8565b50602082015181600101908161024e91906111d8565b50604082015181600201559050506000803373ffffffffffffffffffffffffffffffffffffffff1673ffffffffffffffffffffffffffffffffffffffff16815260200190815260200160002060010181908060018154018082558091505060019003906000526020600020906003020160009091909190915060008201518160000190816102dc91906111d8565b5060208201518160010190816102f291906111d8565b506040820151816002015550508260405161030d9190610f23565b60405180910390203373ffffffffffffffffffffffffffffffffffffffff167f87de23d4080984acee6ef3fc272689b6777f6f85cdf6e1d6cc46970fce5163fe844260405161035d9291906112aa565b60405180910390a3505050565b6103726108d6565b60006001836040516103849190610f23565b908152602001604051809103902060000180546103a090610f69565b9050036103e2576040517f08c379a00000000000000000000000000000000000000000000000000000000081526004016103d990611326565b60405180910390fd5b6001826040516103f29190610f23565b908152602001604051809103902060405180606001604052908160008201805461041b90610f69565b80601f016020809104026020016040519081016040528092919081815260200182805461044790610f69565b80156104945780601f1061046957610100808354040283529160200191610494565b820191906000526020600020905b81548152906001019060200180831161047757829003601f168201915b505050505081526020016001820180546104ad90610f69565b80601f01602080910402602001604051908101604052809291908181526020018280546104d990610f69565b80156105265780601f106104fb57610100808354040283529160200191610526565b820191906000526020600020905b81548152906001019060200180831161050957829003601f168201915b505050505081526020016002820154815250509050919050565b60018180516020810182018051848252602083016020850120818352809550505050505060009150905080600001805461057990610f69565b80601f01602080910402602001604051908101604052809291908181526020018280546105a590610f69565b80156105f25780601f106105c7576101008083540402835291602001916105f2565b820191906000526020600020905b8154815290600101906020018083116105d557829003601f168201915b50505050509080600101805461060790610f69565b80601f016020809104026020016040519081016040528092919081815260200182805461063390610f69565b80156106805780601f1061065557610100808354040283529160200191610680565b820191906000526020600020905b81548152906001019060200180831161066357829003601f168201915b5050505050908060020154905083565b6000806001836040516106a39190610f23565b908152602001604051809103902060000180546106bf90610f69565b905014159050919050565b60006020528060005260406000206000915090508060000160009054906101000a900473ffffffffffffffffffffffffffffffffffffffff16905081565b60606000808373ffffffffffffffffffffffffffffffffffffffff1673ffffffffffffffffffffffffffffffffffffffff168152602001908152602001600020600101805480602002602001604051908101604052809291908181526020016000905b828210156108cb578382906000526020600020906003020160405180606001604052908160008201805461079e90610f69565b80601f01602080910402602001604051908101604052809291908181526020018280546107ca90610f69565b80156108175780601f106107ec57610100808354040283529160200191610817565b820191906000526020600020905b8154815290600101906020018083116107fa57829003601f168201915b5050505050815260200160018201805461083090610f69565b80601f016020809104026020016040519081016040528092919081815260200182805461085c90610f69565b80156108a95780601f1061087e576101008083540402835291602001916108a9565b820191906000526020600020905b81548152906001019060200180831161088c57829003601f168201915b505050505081526020016002820154815250508152602001906001019061076b565b505050509050919050565b60405180606001604052806060815260200160608152602001600081525090565b6000604051905090565b600080fd5b600080fd5b600080fd5b600080fd5b6000601f19601f8301169050919050565b7f4e487b7100000000000000000000000000000000000000000000000000000000600052604160045260246000fd5b61095e82610915565b810181811067ffffffffffffffff8211171561097d5761097c610926565b5b80604052505050565b60006109906108f7565b905061099c8282610955565b919050565b600067ffffffffffffffff8211156109bc576109bb610926565b5b6109c582610915565b9050602081019050919050565b82818337600083830152505050565b60006109f46109ef846109a1565b610986565b905082815260208101848484011115610a1057610a0f610910565b5b610a1b8482856109d2565b509392505050565b600082601f830112610a3857610a3761090b565b5b8135610a488482602086016109e1565b91505092915050565b60008060408385031215610a6857610a67610901565b5b600083013567ffffffffffffffff811115610a8657610a85610906565b5b610a9285828601610a23565b925050602083013567ffffffffffffffff811115610ab357610ab2610906565b5b610abf85828601610a23565b9150509250929050565b600060208284031215610adf57610ade610901565b5b600082013567ffffffffffffffff811115610afd57610afc610906565b5b610b0984828501610a23565b91505092915050565b600081519050919050565b600082825260208201905092915050565b60005b83811015610b4c578082015181840152602081019050610b31565b60008484015250505050565b6000610b6382610b12565b610b6d8185610b1d565b9350610b7d818560208601610b2e565b610b8681610915565b840191505092915050565b6000819050919050565b610ba481610b91565b82525050565b60006060830160008301518482036000860152610bc78282610b58565b91505060208301518482036020860152610be18282610b58565b9150506040830151610bf66040860182610b9b565b508091505092915050565b60006020820190508181036000830152610c1b8184610baa565b905092915050565b600082825260208201905092915050565b6000610c3f82610b12565b610c498185610c23565b9350610c59818560208601610b2e565b610c6281610915565b840191505092915050565b610c7681610b91565b82525050565b60006060820190508181036000830152610c968186610c34565b90508181036020830152610caa8185610c34565b9050610cb96040830184610c6d565b949350505050565b60008115159050919050565b610cd681610cc1565b82525050565b6000602082019050610cf16000830184610ccd565b92915050565b600073ffffffffffffffffffffffffffffffffffffffff82169050919050565b6000610d2282610cf7565b9050919050565b610d3281610d17565b8114610d3d57600080fd5b50565b600081359050610d4f81610d29565b92915050565b600060208284031215610d6b57610d6a610901565b5b6000610d7984828501610d40565b91505092915050565b610d8b81610d17565b82525050565b6000602082019050610da66000830184610d82565b92915050565b600081519050919050565b600082825260208201905092915050565b6000819050602082019050919050565b60006060830160008301518482036000860152610df58282610b58565b91505060208301518482036020860152610e0f8282610b58565b9150506040830151610e246040860182610b9b565b508091505092915050565b6000610e3b8383610dd8565b905092915050565b6000602082019050919050565b6000610e5b82610dac565b610e658185610db7565b935083602082028501610e7785610dc8565b8060005b85811015610eb35784840389528151610e948582610e2f565b9450610e9f83610e43565b925060208a01995050600181019050610e7b565b50829750879550505050505092915050565b60006020820190508181036000830152610edf8184610e50565b905092915050565b600081905092915050565b6000610efd82610b12565b610f078185610ee7565b9350610f17818560208601610b2e565b80840191505092915050565b6000610f2f8284610ef2565b915081905092915050565b7f4e487b7100000000000000000000000000000000000000000000000000000000600052602260045260246000fd5b60006002820490506001821680610f8157607f821691505b602082108103610f9457610f93610f3a565b5b50919050565b7f566964656f20616c726561647920616e616c797a656420616e6420657869737460008201527f73206f6e20626c6f636b636861696e2e00000000000000000000000000000000602082015250565b6000610ff6603083610c23565b915061100182610f9a565b604082019050919050565b6000602082019050818103600083015261102581610fe9565b9050919050565b60008190508160005260206000209050919050565b60006020601f8301049050919050565b600082821b905092915050565b60006008830261108e7fffffffffffffffffffffffffffffffffffffffffffffffffffffffffffffffff82611051565b6110988683611051565b95508019841693508086168417925050509392505050565b6000819050919050565b60006110d56110d06110cb84610b91565b6110b0565b610b91565b9050919050565b6000819050919050565b6110ef836110ba565b6111036110fb826110dc565b84845461105e565b825550505050565b600090565b61111861110b565b6111238184846110e6565b505050565b5b818110156111475761113c600082611110565b600181019050611129565b5050565b601f82111561118c5761115d8161102c565b61116684611041565b81016020851015611175578190505b61118961118185611041565b830182611128565b50505b505050565b600082821c905092915050565b60006111af60001984600802611191565b1980831691505092915050565b60006111c8838361119e565b9150826002028217905092915050565b6111e182610b12565b67ffffffffffffffff8111156111fa576111f9610926565b5b6112048254610f69565b61120f82828561114b565b600060209050601f8311600181146112425760008415611230578287015190505b61123a85826111bc565b8655506112a2565b601f1984166112508661102c565b60005b8281101561127857848901518255600182019150602085019450602081019050611253565b868310156112955784890151611291601f89168261119e565b8355505b6001600288020188555050505b505050505050565b600060408201905081810360008301526112c48185610c34565b90506112d36020830184610c6d565b9392505050565b7f566964656f206e6f7420666f756e64206f6e20626c6f636b636861696e2e0000600082015250565b6000611310601e83610c23565b915061131b826112da565b602082019050919050565b6000602082019050818103600083015261133f81611303565b905091905056fea264697066735822122048603de918e2a68c63a189fed2c839dbc368fc204d55c1479e446ab1ef47fe7964736f6c63430008180033",
  "linkReferences": {},
  "deployedLinkReferences": {}
}